:020000040800F2
:10000000000C0020B5010008234B000849440008FB
:10001000214B00083922000885500008000000002C
:10002000000000000000000000000000274B000856
:100030007322000800000000254B0008294B00082F
:10004000CF010008CF010008CF010008CF01000850
:10005000CF010008CF010008CF010008CF01000840
:10006000CF010008CF010008CF0100083D220008A1
:10007000CF010008CF010008CF010008CF01000820
:10008000CF010008CF010008CF010008CF01000810
:10009000CF010008CF010008CF010008CF01000800
:1000A000CF010008CF010008CF010008CF010008F0
:1000B000CF010008CF010008A94B0008CF010008BC
:1000C000CF010008CF010008CF010008CF010008D0
:1000D000CF01000879500008CF010008CF010008C7
:1000E000CF010008CF010008CF01000800F002F89E
:1000F00000F050F80AA090E8000C82448344AAF172
:100100000107DA4501D100F045F8AFF2090EBAE86F
:100110000F0013F0010F18BFFB1A43F0010318473B
:100120005070000070700000103A24BF78C878C189
:10013000FAD8520724BF30C830C144BF04680C60ED
:10014000704700000023002400250026103A28BF35
:1001500078C1FBD8520728BF30C148BF0B60704739
:10016000662906F0CB86642900F074800020704771
:100170001FB500F0A7F904000020002106F014F9D3
:10018000401C60600020002106F024F9E0601FBDE3
:1001900010B510BD00F0F4FD1146FFF7E9FF05F0C2
:1001A00099FC00F03BFE03B4FFF7F2FF03BC01F043
:1001B000BBF800000948804709480047FEE7FEE712
:1001C000FEE7FEE7FEE7FEE7FEE7FEE7FEE7FEE707
:1001D00004480549054A064B70470000A54B000836
:1001E000ED00000800060020000C002000080020A0
:1001F0000008002010B500F065F9001D10BD00BF1B
:10020000A961000010B50446FFF7F4FF0068005D27
:10021000C00602D504F1200010BD204610BD00002C
:100220000FB41CB50C0007AA009001D02044401E5A
:10023000074B7B4469460190069800F0C0FB002CF8
:1002400003D06946002000F0CDFB1CBC5DF814FB18
:10025000B90700002DE9F041064600241068752911
:10026000314616A510D0AFF30080002802DA4042D4
:1002700013A507E031688A0701D512A502E04907F6
:1002800004D511A5012401E0AFF3008000210A226A
:1002900006F1240709E0B0FBF2FCB0FBF2F302FB2D
:1002A0001C00303078541846491C0028F3D12346EE
:1002B0002A463046BDE8F04100F013B900000000C6
:1002C0002D0000002B000000200000002DE9F04769
:1002D0004FF0000A89460446C0F820A02046E16895
:1002E0008847002876D0252806D0D4E901219047F8
:1002F000206A401C2062F1E7E1682046002588471B
:10030000C4F81CA006460027C4F818A02A2E09D05D
:10031000304605F030F838B304EB8708303EC8F8B3
:10032000186019E059F8041B204604EB870291611C
:10033000E1688847012F064618D1E069002820DAD5
:1003400025F020051DE0D8F8180000EB800006EB32
:1003500040003038C8F818002046E1688847064653
:1003600005F009F80028EED1012F0AD02E2E08D171
:100370002046E16888477F1C0646022F45F020058D
:10038000C4DBA069002803DA404245F00105A06102
:10039000E80701D025F01005B6B1A6F141001928F3
:1003A00002D8203645F400654A463146204625608D
:1003B0004D46FFF7D5FE58B1012806D0ED1D25F0BA
:1003C000070000F1080989E704E005F1040985E761
:1003D00030468AE7206ABDE8F08710B5431C02E08A
:1003E00010F8011B71B18107FAD14FF0013202C838
:1003F0008C1A8C4314EAC211F9D0C01A0A0603D031
:10040000C01E10BDC01A10BD0A0401D0801E10BD50
:100410000902FCD0401E10BD4FF0000200B513468B
:1004200094469646203922BFA0E80C50A0E80C5014
:10043000B1F12001BFF4F7AF090728BFA0E80C50C5
:1004400048BF0CC05DF804EB890028BF40F8042BBE
:1004500008BF704748BF20F8022B11F0804F18BF2B
:1004600000F8012B704710B5044610F0030F08BFC9
:1004700011F0030F40F015804FF0013E121FC0F243
:100480000E8051F8043BA3EB0E0C2CEA030C1CEA83
:10049000CE1C08BF40F8043BF0D0A1F1040102F1EA
:1004A0000402521E08DB11F8013B002B00F8013B4F
:1004B000F7D1114600F0B0FA204610BD70477047E2
:1004C0007047000000487047C005002010B500F0DC
:1004D000C9FA006810BD10B5044600F0C3FA046004
:1004E00010BD2DE9F0470D4699469246044600F1AD
:1004F00024080168880604D5E06921F01001216014
:1005000000E00120A84201DD471B00E00027A169AF
:100510007A1902EB0900081AA0612078C00602D4FB
:100520002046AFF30080002608E0D4E901211AF844
:1005300006009047206A401C761C20624E45F4DB82
:100540002078C0060AD52046AFF3008006E0D4E943
:10055000012130209047206A401C2062381EA7F1FC
:100560000107F4DC07E0D4E9012118F80500904701
:10057000206A401C2062281EA5F10105F3DC2046FC
:10058000AFF300802078000602D50220BDE8F08796
:100590000120FBE770472DE9FF4F0C461E464FF048
:1005A000FF378BB0D2E90001DDF860800A908A46FF
:1005B000C1F30A5505B93D46002108464FF0000039
:1005C000BAF1000F00F4400005DA00EB80004FF4B0
:1005D000400101EA50004FEA9059B9F1010F00DDE6
:1005E000B9460A9850EA4A000ED044F61050A5F2D7
:1005F000FF3545432F14B8F1000F1ED07542291E58
:100600001EDDC9F100021CE0B8F1010F4FF000003F
:1006100001D0302103E0F24305E02154401CB042F8
:10062000FBDB30460022002121540B99C1F80880E1
:10063000C1E900200FB0BDE8F08FBD1B6D1CDEE7E7
:100640004A4600DA694206A800F0E8FA06AB93E8E9
:10065000070003AB83E8070050460A9901F0B7F89A
:100660008DE80700A0F500501F3800900398002D7A
:100670000ADD42F21F014A460844002303A9039001
:10068000684601F063FB09E0A0F500504A461F38B8
:10069000002303A90390684601F082FB8DE8070060
:1006A0000004000C03D04FF0FF30410800E010467A
:1006B000B8F1000F03D00022009215461EE0751E0F
:1006C00005D400F0D3F9303262556D1EF9D5B3462A
:1006D0000122084302D000227F1C04E02078302849
:1006E00001D100227F1E002A099784D01DE0112D20
:1006F00007DA00F0BBF9303262556D1C50EA010296
:10070000F5D1084302D00098C8B10EE00021681E60
:1007100005E0235C625C63542254401E491C814204
:10072000F7DBAB46A81B401E0990002004F80B0025
:100730000B98099AC0F80880C0E9002B7AE71126C7
:100740004FF0000857E72DE9F04F88460446D21DC8
:1007500022F0070191B0D1E90001CDE90A0104F0CE
:1007600092FC02460B98C00F01D02D2007E02068B4
:10077000810701D52B2002E0202101EAC000032AD5
:10078000099001D0072A05DB03464146204600F0C8
:10079000B3F90BE12078800601D5E06900E006207E
:1007A000B8F1650F814606D0B8F1660F18D0B8F1E0
:1007B000670F70D131E00020B9F1110F009001DB1B
:1007C000112301E009F101030AAA01A90CA8FFF70E
:1007D000E2FEDDE90C70002609F10105834647E0E1
:1007E00001204B4600904FF000470AAA01A90CA82F
:1007F000FFF7D1FEDDE90DB00C995D46002610B97A
:1008000009F101000D18B9EB050003D4C0F1FF3662
:1008100009F10105A5EB09002BE0B9F1010F01DA9F
:100820004FF001090020B9F1110F0090484601DD99
:10083000112300E003460AAA01A90CA8FFF7ABFEAA
:10084000DDE90C704D4600268346207800070AD467
:10085000AB4500DA5D4601A8012D04DD411911F810
:10086000011C302907D04F4502DA17F1040F04DAD2
:10087000012082460FE06D1EEEE7002F02DCED1B2B
:100880003E4403E0781CA84200DD7D1CB81B00F14B
:10089000010A4FF000472078000703D4AA4501DB86
:1008A0004FF0FF3A0021B7F1004F0DF143088DF8EA
:1008B000431024D002202B23002F01DA7F422D2366
:1008C0000A21021EA0F1010000DC5FB197FBF1FCE0
:1008D00097FBF1F201FB1C7C17460CF1300C08F879
:1008E00001CDEEE7A8F1010003702188090501D5CB
:1008F000452100E06521A0F1010800F8011C0998DC
:100900000FA9A1EB0807FF1D00B10120411901EB60
:10091000EA70A1693844081A401EA0612078C00618
:1009200002D42046AFF30080099828B1D4E9012110
:100930009047206A401C20622078C00622D52046BD
:10094000AFF300801EE0002E04DBB34502DD01A8FA
:10095000805D00E03020D4E901219047206A401CEE
:100960002062761CAAF101005FEA000A0AD1FFF7B3
:10097000A9FDC0680168405CD4E901219047206A64
:10098000401C2062281EA5F10105DCDC07E0D4E94B
:10099000012118F8010B9047206A401C2062381E84
:1009A000A7F10107F3DC2046AFF30080032011B06C
:1009B00041E6000001694A1C02610878704700B5F1
:1009C0008FB0CDE901310021059105497944CDE988
:1009D000031011466846FFF779FC0FB000BD000018
:1009E000E5FFFFFF0A6802F8010B0A607047D1E9D2
:1009F00000239A4202D2531C0B60107070477CB5E2
:100A0000054600236846CDE9003300F0D3F8694677
:100A1000284604F08BFB7CBD4FF000020429C0F097
:100A2000128010F0030C3FF4F9ACCCF1040CBCF1D3
:100A3000020F18BF00F8012BA8BF20F8022BA1EB72
:100A40000C01FFF7EBBC5FEAC17C24BF00F8012B6F
:100A500000F8012B48BF00F8012B70470048704791
:100A6000A005002000487047A005002030B5B0F177
:100A70000A024FEA900E71F100034EEA817EB0EB5C
:100A80000E0061EB91014FEA101E4EEA017E10EB61
:100A90000E0041EB11114FEA102E4EEA016E10EBE1
:100AA0000E0041EB11214FEA104E4EEA014E10EBC1
:100AB0000E0041EB1141401841F100014FEAD00016
:100AC00040EA41704FEAD10110EB80054FEA810402
:100AD00044EA907444EB01046D1944EB0404521B86
:100AE000A3414FF0000348BF0A3200D530BD401C7F
:100AF00041F1000130BD00002DE9F0411F460446E0
:100B000003260168072A01F4006004DB08B116A57A
:100B100005E016A503E008B115A500E015A521F034
:100B200010002060A069C01EA0610FB1401EA0612E
:100B30002046AFF300804FB1D4E9012138469047F9
:100B4000206A401C2062C01C206206E0206AFAE78E
:100B5000D4E9012115F8010B9047761EF8D2204602
:100B6000AFF30080BDE8F0814E414E006E616E0033
:100B7000494E4600696E66000FB4002300B589B087
:100B80000CA900910B99CB60214B7B440693214B20
:100B90007B44079304236FF00042CDE901321E4AE3
:100BA0007A446B4608920246002006F02FFA09B0FC
:100BB0005DF814FB70B506464FF0FF3015460C4645
:100BC000324686B00091CDE90101694600200490CB
:100BD00004A8FFF7D1FF02460498211825B108B1F7
:100BE000084600E020462860049800280DD0002A1E
:100BF00002DD0098884208D03246081B69460094FE
:100C0000CDE9010404A8FFF7B7FF06B070BD0000EE
:100C10004F02000067020000270200002DE9F047A4
:100C2000814616468AB0354878440DC88DE80D00D7
:100C300032487844801C03AC0DC884E80D0041F6AE
:100C40009B300844372190FBF1F290FBF1F5A5F1C0
:100C5000800501FB12041B3C02D56442012000E028
:100C60000020DFF898A080460027FA44AAF1BE0AC7
:100C70000EE0E0070AD03246684607EB4701012341
:100C80000AEB810101F08CF88DE8070064107F1CED
:100C9000002CEED1194F7F44AE3F19E0E80715D084
:100CA00007EB04100DF1180A90E80E008AE80E0018
:100CB000C068F04201D1981908903246012306A974
:100CC00003A801F06DF803AB83E807006D10641C06
:100CD000002DE3D14FF0010332466946B8F1000F11
:100CE00003A802D001F032F801E001F059F8C9E997
:100CF0000001C9F808200AB0BDE8F087E4640000EC
:100D00004FF0013C50F8042B51F8043B9A4221D19A
:100D1000A2EB0C03934313EACC1317D150F8042B26
:100D200051F8043B9A4215D1A2EB0C03934313EA0A
:100D3000CC130BD150F8042B51F8043B9A4209D143
:100D4000A2EB0C03934313EACC13DBD04FF000006B
:100D5000704700BFD01A01BAB1FA81F101F0180151
:100D600022FA01F0CB40C1F12001DBB2C0B2C01ABF
:100D70002CFA01F3D11A914311EAC311E6D170475D
:100D80007546FFF76BFEAE4605006946534620F0F8
:100D90000700854618B020B5FFF71AFABDE82040D5
:100DA0004FF000064FF000074FF000084FF0000B27
:100DB00021F00701AC46ACE8C009ACE8C009ACE8DA
:100DC000C009ACE8C0098D46704710B50446FFF76E
:100DD00011FA0068005D00F0010010BD426842B1E8
:100DE000016811F8013B23B1521EC0E900121846F8
:100DF00070470121C160881E704742685AB1C368BC
:100E0000016843B983688B4205D0491E521CC0E972
:100E10000012002070474FF0FF30704710B50446B5
:100E2000AFF300802046BDE81040FFF7BCB90000DA
:100E30002DE9FF4F06468BB00878FF2806D0491CE5
:100E40002D2805D000244FF0000908E000200CE018
:100E50000124F8E709EB8903491C00EB43090878F2
:100E6000FF28F7D114B1C9F10000814610780025A0
:100E70002C46AA4629462D2801D02B2804D1521CE5
:100E80002D2813D0002082468B461078FF280FD0E3
:100E90004FF0000C0A21521CA5FB017804FB0181D4
:100EA00005FB0C11C5194BEB0104EEE70120EAE745
:100EB000002108464FF00000BAF1000F02D000EB0D
:100EC00080004008C0F38157012F01DD4FF0FF374C
:100ED0000E9955EA040009EB01080BD04FF0020906
:100EE00018F5FA7F16DA4FEACA70002F706008DD35
:100EF000012007E04FEACA70C6E900B00FB0BDE8B4
:100F0000F08F00203060FFF7ADFDC0F80090182191
:100F1000084616E0B8F5FA7F18DD002F02DAF74828
:100F2000784401E0F6487844D0E90010C6E90010A2
:100F300040EACA707060FFF795FDC0F80090142178
:100F400008460FB0BDE8F04F05F0D5BF00210846B8
:100F50004FF00000B8F10001099002DAC7F1000279
:100F600000E03A4601DAC8F1000106A8FFF756FE94
:100F700006AB93E8070003AB83E8070044F23E00AA
:100F80005BEA04010090584604D144F21E012C464D
:100F90005D460091210C0904014306D10099240407
:100FA00044EA15442D041039009104F07F410143B7
:100FB00006D10099240244EA15642D0208390091F3
:100FC00004F07041014306D10099240144EA1574EC
:100FD0002D01091F009104F04041014306D1009901
:100FE000A40044EA9574AD00891E009104F000410C
:100FF000084304D100986D196441401E00904FF0E1
:1010000001033A466846B8F1000FCDE9014503A94E
:1010100002DD00F0DAFE01E000F0ADFEBAF1000FF3
:1010200004460D4601D084F00044002108464FF0EC
:101030000000099940F2FF77484010F00C0F07D1EB
:1010400024F00040284303D0C4F30A50B84212D120
:10105000FFF708FDC0F80090C4F30A50B8420AD167
:10106000A8487844D0E90010C6E9001004F0004117
:101070000843706042E7C6E900543FE72DE9FF4F9F
:101080001F464FF0000A4FF0FF38454691B0D7E9B0
:101090000146CDF83CA0FFF715FAC0680168405C36
:1010A0001090B96912986D1C8847396A8146884743
:1010B0000028F6D1B9F1FF3F0AD0002E24F4D06405
:1010C00011DDB9F12B0F08D0B9F12D0F0BD102E0D2
:1010D000404615B013E744F48064B96912986D1C5A
:1010E0008847761E8146600504A901D52D2000E0C1
:1010F0002B20002E01F1010B0DF130088DF81000AE
:101100003FDDB9F1690F08D0B9F1490F05D0B9F148
:101110006E0F02D0B9F14E0F1CD13B4601A80095CD
:1011200080E85002DDE912126FF0020005F072FF54
:10113000C11CCED10EE0B96912986D1C884781465A
:101140001398761E44F4007405600F98401C002E1E
:101150000F9016DDB9F1300FEDD0B9F1780F02D054
:10116000B9F1580F0DD10F9801280AD13B46CDE9AE
:101170000054DDE91212001F029605F049FFC11C60
:10118000A7D1109989453ED144F0800406E0139917
:10119000681CAAF1010A44F400740860B9696D1C66
:1011A0001298761E884730288146F0D02BE010999F
:1011B000894505D1200603D4761E44F0800418E04A
:1011C000484604F0D8F808B3761E0DF123018B458C
:1011D00044F4007408D2A9F130000BF8010B20068A
:1011E00007D5AAF1010003E0200602D40AF10100AC
:1011F0008246A00502D51399681C0860B969129847
:101200006D1C88478146002ED1DC53E0002E51DD55
:10121000B9F1650F02D0B9F1450F4BD1A00549D501
:10122000B9696D1C1298761E24F440748847002E0C
:1012300081460CDD2B2804D0B9F12D0F07D144F4E1
:101240008074B96912986D1C8847761E8146E00546
:1012500001D52D2100E02B2108F8011BCDF80080DD
:1012600021E0761E0DF13901884544F400740CD25A
:10127000A9F1300010F0FF0088F8000002D10099B9
:10128000884509D908F1010806E0E00501D51E48A6
:1012900001E042F20F708246B96912986D1C8847CE
:1012A000814613980560002E04DD484604F063F87B
:1012B0000028D6D1F96912988847FF2053468BF849
:1012C000000088F8000000200A900B9004AA0CA9E6
:1012D0000AA8FFF7ADFDA00502D46FF00100F8E603
:1012E00014F0240F12D0E0071CD13868DDE90A128F
:1012F000031D3B600068C0E9001213E07462000047
:10130000666200002A610000F1D8FFFF0AA9684662
:1013100003F00CFFE00705D13868009A011D396021
:10132000006802602846D4E601491820ABBEFEE7FB
:1013300026000200704700002DE9FF4F1F464FF0C6
:101340003C0987B04FF00042DDE9141001F10108BB
:10135000DDF858A002EA4050039000200590834633
:10136000054604460490B969461E08988847AAF1C4
:10137000010A0290BAF1000F3BDD02982E2815D029
:10138000102100F016FA00282EDB4FF0010B059912
:10139000014317D0B9F1000F0BDB4A46C11700F02B
:1013A000F5F905430C43A9F1040905E00120049077
:1013B0000BE008B145F0010501200590049820B923
:1013C000361D02E0049800B1361FB969089808F18B
:1013D00001088847BBF1000FAAF1010A0290C9D0A9
:1013E0000999C1F80080C5E70298702808D05028F4
:1013F00006D0F96908988847BBF1000F14D04FE078
:10140000002002900120BBF1000F049009D0B969BF
:10141000089808F101088847AAF10109B9F1000FFD
:1014200007DCF969089888476FF001000BB0BDE848
:10143000F08F2B2804D02D280CD14FF0FF300490D2
:10144000B969089808F101088847A9F10109B9F1BB
:10145000000FE6DD411CE4D00A2100F0AAF90028C3
:10146000DFDB029908F1010801EB810100EB41008B
:101470000290B969089888470A2100F09AF9099AF8
:10148000A9F10109B9F1000FC2F8008001DD0028BF
:10149000E7DAF969089888470499029800FB016621
:1014A00055EA040004D004F04041090002D006E0EF
:1014B000039898E0A40044EA9574AD00B61E04F0C9
:1014C0000041080002D16D196441761E159810F094
:1014D000240F03D04FF00B095C4803E04FF02809BC
:1014E0006FF07D008246564507DAAAEB0601894473
:1014F000B9F1410F01DD4FF0410901200021A9F1AF
:10150000010200F043F9024628400B4621400843FF
:1015100001D0012100E00021501E029143F1FF3172
:1015200028402140084301D0012000E0002002991A
:10153000834651EA0B014FD0002108464FF00000CE
:10154000039900F4400039B100EB80004FF44001F2
:1015500000EBD07001EA60008015012802DD4FF039
:10156000FF3000E013D0401C36D0029860B3BBF1CE
:10157000000F0CD14A460120002100F007F9284055
:101580002140084301D0012000E00020E0B101200B
:101590004A46002100F0FAF8034640190A46614124
:1015A0002D1A8C4111D3B9F1400F09DD159810F0B7
:1015B000240F02D0AAF1340603E0AAF1170600E0D6
:1015C000761C00254FF0004406E05B1E42F1FF321E
:1015D00020EA030521EA0204CAF10100B04206DA5A
:1015E0001B49039808430190002000900EE0039AE5
:1015F000C4F3D321E80A0A43164940EA44500A4397
:101600003146CDE90002684603F0AAFE159810F0B5
:10161000240F0BD01598C00715D13868DDE90012EA
:10162000031D3B600068C0E900120CE002A8694697
:1016300003F07CFD1598C00705D13868029A011D9A
:101640003960006802604046F0E6000002FCFFFFDF
:101650000000F07F0000F03F2DE9FF4F92461D464D
:1016600085B04FF00041DDE9124BDDE914727F1EB9
:1016700001EA4B50414940F0FF4940EA010800218E
:1016800022F020004928049102D04E2828D04CE0B6
:101690003BA0012607C88DE80700A9690698641CCD
:1016A00088477F1E014606D41DF8060018B121F0B8
:1016B000200181420BD0E96906988847032E34D077
:1016C000082E32D06FF0010009B0BDE8F08F761C13
:1016D000032E01D0082EE0D1601CCAF80000DCE720
:1016E000A9690698641C88477F1E2AD420F0200030
:1016F000412826D1A9690698641C88477F1E20D4FA
:1017000020F020004E281CD1A9690698641C884747
:101710007F1E48F4002849F48009CAF8004001D42B
:10172000282806D0E969069888475FEACB7012D06E
:1017300022E0A9690698641C88477F1E01D400280E
:1017400003DAE96906988847BCE72928F1D1641CC7
:10175000CAF80040E9E71BF0240F07D02868049975
:10176000031D2B600068C0E9001805E02868021D11
:101770002A600068C0F800902046A5E70000F07FCE
:10178000494E46494E49545900000000B2F1200329
:101790000AD5C2F1200301FA02F120FA03F300FA9C
:1017A00002F041EA0301704700FA03F14FF0000034
:1017B00070473A2800D2303820F02002412A01D365
:1017C000A2F13700884201D34FF0FF3070475FEA43
:1017D000400C08BF91F0000F4FEA8C234FEAC12262
:1017E00043EA51514FEA1C5018BF00F5F0404FEA50
:1017F000300018BF41F000415FEA6C5C00F02980C6
:10180000BCF1FF3F08BF40F080407047130C06BF9B
:1018100012044FF0100C4FF0000C130E04BF120214
:101820000CF1080C130F04BF12010CF1040C930F00
:1018300004BF92000CF1020CD30F04BF52000CF154
:10184000010C11464FF00002A0F11F00A0EB0C00AC
:10185000704711F0004F08BF704731F000413FF46E
:10186000D5AF0B0C06BF09044FF0100C4FF0000C65
:101870000B0E04BF09020CF1080C0B0F04BF090189
:101880000CF1040C8B0F04BF89000CF1020CCB0F80
:1018900004BF49000CF1010CCCF12003A0EB0C00BB
:1018A00022FA03F302FA0CF241EA030100F101000B
:1018B000704720F07F4C80EA030023F07F47ACEBB9
:1018C000070303F57C5300F0004003F1FF032DE90B
:1018D00080494FEA154B09B44FEA144325EA0B4EF1
:1018E00024EA03480FF2042606EB132749083E7842
:1018F0005FEA320203FB0667C7F5000707FB06F63F
:101900004FEA54374FEAD64606F1020607FB066C4B
:10191000CCF1005C4FEA1C472CEA074C07FB06F4AD
:101920000CFB06F504EB15464FEA961634BF002073
:101930004FF000404FEAD13706FB07FC4FEA1C4C42
:101940000CFB0BF7D21B03FB0CF761EB07010CFB45
:101950000EF7B0EB074072EB17420CFB08F734BFF1
:10196000A2EB0742B2EB074261EB17414FEA0C448E
:101970004FEA910706FB07FC4FEA1C4C0CFB0BF7E8
:10198000B0EBC74072EB573203FB0CF734BFA2EB4E
:10199000C742B2EBC74261EB57310CFB0EF7B0EB1D
:1019A000C70072EB57720CFB08F734BFA2EBC702FB
:1019B000B2EBC70261EB5771039F4FEA816141EAC5
:1019C000921104EBCC044FEAD1374FEA826206FB56
:1019D00007FC42EA90124FEA80604FEA1C4C0CFB75
:1019E0000BF7D21B03FB0CF761EB07010CFB0EF7A7
:1019F000B0EB074072EB17420CFB08F734BFA2EBC9
:101A00000742B2EB074261EB17414FEA8C554FEAB0
:101A1000910704EB9C2406FB07FC4FEA1C4C0CFBD3
:101A20000BF7B0EBC74072EB573203FB0CF734BF38
:101A3000A2EBC742B2EBC74261EB57310CFB0EF78A
:101A4000B0EBC70072EB57720CFB08F734BFA2EB88
:101A5000C702B2EBC70261EB577115EB4C254FEA99
:101A6000816141EA92114FEA82624FEAD13742EA3C
:101A7000901206FB07FC44F100044FEA80604FEA35
:101A80001C4C0CFB0BF7D21B03FB0CF761EB0701A3
:101A90000CFB0EF7B0EB074072EB17420CFB08F79C
:101AA00034BFA2EB0742B2EB074261EB174115EBE3
:101AB0001C154FEA813141EA92414FEA823242EAF3
:101AC00090424FEA80304FEA0C7644F1000448EA35
:101AD00003434EEA0B484FF0000EB2EB080C71EBDB
:101AE000030724BF624639464EEB0E0E4FF0000B43
:101AF0000018524149414BEB0B0BB2EB080C71EB58
:101B000003077BF1000B24BF624639464EEB0E0EF5
:101B10004FF0000B0018524149414BEB0B0BB2EB5D
:101B2000080C71EB03077BF1000B24BF62463946BA
:101B30004EEB0E0E51EA020718BF46F0010616EBF7
:101B40000E7655F1000254F1000103D5BDE889017C
:101B5000BDE80088BDE88901BDE80048B6195241DA
:101B600041EB0101A3F10103704780807F7E7D7C02
:101B70007B7A7978777676757473727171706F6E1F
:101B80006E6D6C6C6B6A6A696868676666656464CA
:101B9000636362616160605F5F5E5E5D5D5C5C5B54
:101BA0005B5A5A59595858575756565555555454C3
:101BB000535352525251515050504F4F4F4E4E4D21
:101BC0004D4D4C4C4C4B4B4B4A4A4A49494948486D
:101BD00048474747474646464545454444444443AD
:101BE00043434342424242414141000046EA0646E5
:101BF000A3F570534FEA164646EA42564FEAD22200
:101C000042EA415210B54FEAD121A3F1010300F09D
:101C10002FF820F0004000F1020C00F0004701EB2B
:101C200000501146BCF5006F40EA070000D210BD1D
:101C3000BAF1000F0AD01CB503B44FF004004FF006
:101C400004014FF000000FBCBDE810404FF0000150
:101C5000BBF1010FB9BF04484FF0FF310348002129
:101C600040EA070010BD00BFFFFFEF7F0000F07FDC
:101C7000002B9C4630D477002BD01CB54FEA370799
:101C800003B44FF010004FF01001BAF1000F06D06E
:101C9000BCF1000FDCBF40F0080040F008014FF03D
:101CA00000000FBCBDE810400BF1010BBBF1010FB0
:101CB00008BF5FEA170722BF12F1010211F101010B
:101CC0004FF0004143F1000300F0004043EA000000
:101CD0007047F9D35708D0E746EA064613F1400F9C
:101CE0004FEA16461FDD13F1200FDFBF16430A46E9
:101CF000002120335B42BED0C3F1200746EA0646EE
:101D000002FA07F74FEA164646EA0706C3F120072C
:101D100022FA03F201FA07F721FA03F14FF0000368
:101D200042EA0702A7E746EA020646EA06464FEA03
:101D3000164646EA0106BCBF46EA0646360C4FF098
:101D400000034FF000024FF0000194E72DE9804CB2
:101D50009A46934670B491E8380007C831EA400CBF
:101D600048BF34EA430C03D5FFF7A3FDFFF780FF1C
:101D7000F0BCBDE8008C2DE9804C9A46934670B4C7
:101D800091E8380007C831EA400C48BF34EA430CF8
:101D900003D5FFF78EFDFFF729FFF0BCBDE8008CEF
:101DA0002DE9804C9A46934670B491E8380007C8F4
:101DB00010F0804F08BF13F0804F03D100F01AF8E5
:101DC000FFF756FFF0BCBDE8008C2DE9804C9A4629
:101DD000934670B491E8380007C810F0804F08BFF0
:101DE00013F0804F03D100F005F8FFF7FFFEF0BCC1
:101DF000BDE8008C20F07F4780EA030023F07F4C91
:101E000007EB0C03A3F57C5300F00040A3F1FE03A5
:101E100092F0000F00F0B38095F0000F00F0778093
:101E20002DE901494FEA11404FEA144621EA0048E2
:101E300000FB06FC24EA064708FB06F607FB08F849
:101E400000FB07F718EB06484CEB164C4FEA124B19
:101E500018EB07484FEA15464CEB174022EA0B4EA9
:101E60000BFB06FC25EA06470EFB06F607FB0EFEFB
:101E70000BFB07F71EEB064E4CEB164C4FF0000623
:101E80001EEB074E4CEB174B18EB0B0840F1000014
:101E900018EB0E0B58EB000840F100008F1A4FF0C2
:101EA00000013CBFC943661B14BFB5EB040C002105
:101EB0003CBFC943F61B4FEA17444EEA8E0E27EA91
:101EC00004454FEA1C4704FB07622CEA074C05FB5C
:101ED00007F70CFB05F604FB0CFC16EB074642EB80
:101EE000174216EB0C4642EB1C421BEB060658EB66
:101EF0000202414146EA9E0601D5BDE80189B619B4
:101F0000524141EB0101A3F10103BDE801894FEA10
:101F100014454FEA114724EA054621EA074C05FB20
:101F200007F406FB07F70CFB06F105FB0CFC11EBB5
:101F3000074144EB17444FEA124711EB0C4144EBC5
:101F40001C4422EA074C05FB07F206FB07F70CFBD3
:101F500006F605FB0CFC16EB074642EB174216EBA8
:101F60000C4642EB1C456A1854F1000148BF70470B
:101F7000B619524141EB0101A3F10103704795F0FD
:101F8000000F37D04FEA11424FEA144721EA0246C8
:101F900024EA074C02FB07F106FB07F70CFB06F4EB
:101FA00002FB0CFC14EB074441EB17414FEA1547C9
:101FB00014EB0C4441EB1C4125EA074C02FB07F5EE
:101FC00006FB07F70CFB06F602FB0CFC16EB0746BC
:101FD00045EB174516EB0C4645EB1C42121951F127
:101FE000000148BF7047B619524141EB0101A3F10E
:101FF000010370474FEA14454FEA114724EA0546AA
:1020000021EA074C05FB07F106FB07F70CFB06F27C
:102010004FF0000605FB0CFC12EB074241EB1741A9
:1020200012EB0C4251EB1C4148BF7047921841EB38
:102030000101A3F10103704770B50446006881688F
:10204000C943C90717D1816821F00101816000F0FF
:1020500011FE05460AE000BF00F00CFE401B0228FE
:1020600004D920688068C043C00706D02068806813
:10207000C043C007F0D0002070BDA06A40F010003F
:10208000A062E06A40F00100E062012070BD10B57E
:102090000146406A826A12F0500F05D0006A026B56
:1020A000BDE8104008461047816A41F40071816222
:1020B00001688968C1F3424107290CD1017B51B9FC
:1020C000816A21F480718162816AC90403D4816AC2
:1020D00041F00101816200F04DF910BD10B5406A78
:1020E000816A41F040018162C16A41F00401C1622C
:1020F00000F051F910BD10B5406A00F04BF910BD69
:10210000F8B500260446009600688168C943C907EF
:102110002DD0816841F001018160164816490068A0
:10212000B0FBF1F000E0401E00900028FBD100F071
:10213000A1FD054616E000BF00F09CFD401B0228F3
:1021400010D920688068C043C0070BD0A06A40F057
:102150001000A062E06A40F00100E06284F82460B0
:102160000120F8BD20688068C043C007E4D100208A
:10217000F8BD0000BC00002040420F003EB50E201C
:102180008DF8080000203224CDE90040012302AA86
:102190006C210F4800F07AFF0E4D38B9022301AAD6
:1021A0006C210B48009400F049FE18B102F04EF982
:1021B00028463EBDBDF8040040BAC0F30B0004F051
:1021C0001DFC03B00449BDE8304004F05FBC0000D2
:1021D00074040020000080BFDB0FC93A2DE9F041F4
:1021E00000F048FD0446114E4FF07E5740F2DC559A
:1021F00003E03146384603F001FF00F03BFD001BD1
:10220000A842F6D303F002FC094904F03FFC03F0B6
:10221000ABFD084CE06320630021084603F0EEFEAE
:10222000002020716071BDE8F0810000E4CB964091
:102230000000E04000000020FEE70000014800F040
:1022400075BA00003004002030B590F840500124E9
:10225000AC40C56B6C60046863604368102B036816
:1022600003D099600068C26030BD9A600068C160A8
:1022700030BD704772B6FEE7F8B50024009490F8C0
:1022800024202546012A12D0012280F824204A6801
:102290001F23072A0DD20668776B521E02EB8202BB
:1022A00093409F430B6893401F43776319E00220DC
:1022B000F8BD06680D2A0AD2376BD21F02EB8202E4
:1022C00093409F430B6893401F43376309E0F76ACD
:1022D0000D3A02EB820293409F430B6893401F43E9
:1022E000F7620A68072306680A2A0AD3F7680A3AD7
:1022F00002EB420293409F438B6893401F43F76079
:1023000008E0376902EB420293409F438B68934099
:102310001F4337610A68102A01D0112A20D1124BBD
:1023200002689A4217D193681B0219D4936843F448
:10233000000393600968102912D10C490C4A0968FE
:10234000B1FBF2F101EB8101490000E0491E00916F
:102350000029FBD104E0816A41F02001816201245F
:1023600080F824502046F8BD00240140BC00002025
:1023700040420F0000680549884205D104480288A0
:10238000011D0A80408848807047000000240140F9
:1023900020000020704770472DE9F0414FF0000702
:1023A00004003D467ED0A06A002628B9E66284F883
:1023B0002460204600F07EF82046FFF73DFEA16A2B
:1023C000C90600D420B1A06A40F01000A06269E004
:1023D000A16A21F4885141F00201A1626268E169B9
:1023E000237B0A4347EA43010A43A1684FF48077FD
:1023F000B94209D0012907D05FF0000194F814C058
:10240000BCF1010F02D00AE03946F7E7F3B1A36A45
:1024100043F02003A362E36A43F00103E36223680D
:10242000D3F804C02CF4694C4CEA010CC3F804C086
:1024300021688B68DFF870C003EA0C0313438B60DC
:10244000A168B9420BD0012909D00CE0DFF85CC0CB
:10245000A3690CEB43330B4343F40061DFE7218AAC
:102460000D05A5F580152168CB6A23F470032B4375
:10247000CB62216889680E4B1940914208D1E6620F
:10248000A16A21F0020141F00101A162BDE8F081E1
:10249000A06A20F0020040F01000A062E06A40F064
:1024A0000100E0620120F1E7FDF7E1FF00E0FFFF3E
:1024B000FE0E1FFF70B586B00025064600950195FB
:1024C000029503950068194988422DD118498869F9
:1024D00040F400708861886900F400700490886995
:1024E00040F0080088618869694600F0080004909F
:1024F0000320009001900F4800F0C6FA0F4C0E48E0
:10250000C4E900058020C4E9025040002061800039
:1025100060612020C4E90605204600F0B1F908B149
:10252000FFF7A8FE3462666206B070BD0024014069
:1025300000100240000C014008000240300400205E
:102540002DE9F047894604463B4900683B4F0E1D84
:102550009046884201D0B84207D1306810F4702FFD
:1025600003D001252846BDE8F08794F8240001280F
:102570000CD0012084F824002046FFF7C1FD05009F
:102580004FF0000004D084F82400EBE70220EAE7D3
:10259000A16A40F60162914341F48071A162216811
:1025A000B94218D1326812F4702F14D0A16A41F4E4
:1025B0008011A1623168490505D5A16A21F4005155
:1025C00041F48051A162A16AC9040AD5E16A21F0EF
:1025D0000601E16206E0A26A22F48012A262496862
:1025E000E9E7E06284F82400216A15488862216ADC
:1025F0001448C862216A1448086321686FF0020019
:1026000008602068816841F48071816021684346D8
:102610004A464C31206A00F061F920688168C1F3B4
:1026200042410729816803D041F48011816099E714
:1026300041F4A001FAE70000002401400028014015
:102640008F200008F7200008DD20000810B590F862
:1026500021100022022905D00421816380F8202066
:10266000012010BD01680B6823F00E030B600168A8
:102670000B6823F001030B6090F84030C46B01211C
:1026800001FA03F3636080F8211080F820201046DF
:1026900010BD000010B590F821100024022903D0CD
:1026A0000421816301243DE001680A6822F00E02E2
:1026B0000A6001680A6822F001020A601A4A016889
:1026C000914201D1012121E0174A1432914201D1F6
:1026D00010211BE0144A2832914201D1891515E0DE
:1026E000114A3C32914201D189140FE00E4A503216
:1026F000914202D14FF4803108E00B4A643291429A
:1027000002D14FF4801101E04FF08071064A083A7F
:102710005160012180F82110002180F82010416BC8
:1027200001B18847204610BD080002402DE9F05F46
:10273000C16B0C6801680B68D0F840C0042202FA33
:102740000CF2494DDFF824A1494E4A4FDFF828B179
:10275000DFF828E122422CD05A072AD50A689206CF
:1027600003D40A6822F004020A600168A94201D178
:10277000042219E0514501D1402215E0B14202D1B5
:102780004FF4806210E0B94202D14FF480420BE076
:10279000594502D14FF4802206E0714502D14FF431
:1027A000800201E04FF080622F4908394A60C16A17
:1027B0003BE04FF0020808FA0CF818EA040F4FF05B
:1027C00000094FF0010235D05FEA837832D50B68FB
:1027D0009B0605D40B6823F00A030B6080F82120C8
:1027E0000168A94201D1022219E0514501D12022FC
:1027F00015E0B14202D14FF4007210E0B94202D1AB
:102800004FF400520BE0594502D14FF4003206E07C
:10281000714502D14FF4001201E04FF000721249ED
:1028200008394A6080F82090816A00291AD0BDE8F2
:10283000F05F0847082505FA0CF5254212D01B0762
:1028400010D50B6823F00E030B6090F84010C36B9B
:1028500002FA01F15960826380F8212080F820900B
:10286000016BE2E7BDE8F09F080002401C00024057
:102870003000024044000240580002406C00024018
:1028800030B528B308C8134914221944B1FBF2F13A
:102890008900C16310498163022141771A6843F6B8
:1028A000F0718A43D0E900142143D0E902452C435A
:1028B000214304692143446921438469214311432D
:1028C000196000214163012242770177084630BD3B
:1028D000012030BDF8FFFDBF0000024070B5044686
:1028E00090F82000002501280CD0012084F8200059
:1028F00094F821600020012E06D084F820000225E3
:10290000284670BD022070BD022684F82160A063B5
:102910002068066826F0010606602046FFF794FC52
:10292000E06A00282068016802D041F00E0106E04C
:1029300021F0040101602068016841F00A01016092
:102940002068016841F001010160D9E770B50446D3
:1029500000F090F90546601C02D004480078044459
:1029600000F088F9401BA042FAD370BDB0000020EF
:102970002DE9F04300233E4F0F2573E001229A40DA
:102980000A406DD023F00304E619D6F808809C07AE
:102990004FEA147C05FA0CF909EA0804DFF8D48040
:1029A000404502D14FF0000816E0DFF8CC804045EA
:1029B00002D14FF001080FE0DFF8C080404502D19E
:1029C0004FF0020808E0DFF8B880404502D14FF030
:1029D000030801E04FF0040808FA0CF8A04522D1E2
:1029E000284CD4F800C02CEA020CC4F800C0241D06
:1029F000D4F800C02CEA020CC4F800C0214C0C34FE
:102A0000D4F800C02CEA020CC4F800C0241FD4F88B
:102A100000C02CEA020CC4F800C0D6F808C02CEAAA
:102A2000090CC6F808C0FF2A01D8064601E000F1EB
:102A300004064FEA830401D9A4F12004D6F800C0AB
:102A400005FA04F82CEA080C4FF0040808FA04F818
:102A50004CEA080CC6F800C0C46824EA0204C4604A
:102A600003F1010331FA03F288D1BDE8F0830000DD
:102A70000000014000080140000C0140001001402E
:102A800000140140000401402DE9F84FDFF8B8912F
:102A90000024A9F1040B23460F2709F1040AABF126
:102AA000040EC9E00125A5402A40AA427DD1674E07
:102AB000D1F804C0ACEB0608B44532D014DCBCF14C
:102AC000030F3AD009DCBCF1000F2AD0BCF1010F92
:102AD0001CD0BCF1020F31D11DE0BCF1110F17D099
:102AE000BCF1120F2AD119E0B8F5881F19D006DC05
:102AF000B8F5803F15D0B8F5801F1FD111E0B8F5AB
:102B0000001F0ED0B8F5041F18D10AE0CB6815E0FD
:102B1000CB681B1D12E0CB6808330FE0CB680C3389
:102B20000CE08B682BB1012B4FF0080303D04561FB
:102B300004E0042302E0056100E00023FF2A01D83D
:102B4000064601E000F104064FEA840501D9A5F12B
:102B50002005D6F8008007FA05FC28EA0C0803FADD
:102B600005F548EA0508C6F800804D68ED0062D515
:102B7000374DAE6946F00106AE61AD6924F003063B
:102B800005F001050095334D06EB050CDCF8085007
:102B9000A607360F07FA06F825EA0805DFF8B88019
:102BA000404503D14FF0000817E044E0DFF8AC8067
:102BB000404502D14FF001080FE0DFF8A480404506
:102BC00002D14FF0020808E0DFF89880404502D1BA
:102BD0004FF0030801E04FF0040808FA06F848EA4D
:102BE0000508CCF808804D68D9F80060ED024D4624
:102BF00001D5164300E096432E604D68DAF8006078
:102C0000AD02554601D5164300E096432E604D684F
:102C1000DBF80060AD035D4601D5164300E0964346
:102C20002E604D68DEF80060ED03754601D5164351
:102C300000E096432E60641C0D682A46E5407FF450
:102C400031AFBDE8F88F000008040140000011100A
:102C5000001002400000014000080140000C01404B
:102C600000100140001401400AB1016170470904DD
:102C7000FBE700000148806870470000B0000020BA
:102C800010B5040013D0242084F83D0020680168AA
:102C900021F001010160204600F08EFA002020643E
:102CA00084F83D0044F8300FA073207310BD01205C
:102CB00010BD000070B5040025D094F83D0000253B
:102CC00020B984F83C50204600F092FA242084F881
:102CD0003D002068016821F0010101602068016861
:102CE00041F4004101602068016821F40041016065
:102CF00000F052FC4D4A6168914201D84C4900E015
:102D00004C49884201D2012070BD4B492368B0FB79
:102D1000F1F15E6826F03F060E435E606368934201
:102D200006D94FF4967359434FF47A73B1FBF3F11C
:102D30002368491C1E6A26F03F0631431962616808
:102D4000914210D84900401EB0FBF1F2521CC2F370
:102D50000B02042A01D2042022E0B0FBF1F0401C57
:102D6000C0F30B001CE0A268F2B301EBC10303EB5C
:102D70000116431EB3FBF6F35B1C43F480431B05B3
:102D800049D092B301EBC10202EB0111401EB0FB2E
:102D9000F1F0401CC0F30B0040F4804040F40040D0
:102DA0002168CA694CF6FF739A431043C861D4E99D
:102DB000071001432068026822F0C002114301603D
:102DC000D4E9030101432068826848F2FF339A4343
:102DD00011438160D4E9050108432168CA6822F0E3
:102DE000FF021043C86001E00EE016E020680168B1
:102DF00041F0010101602564202084F83D00256335
:102E000084F83E50002070BD01EB4106431EB3FB29
:102E1000F6F35B1CB3E70120C2E701EB4101401E62
:102E2000B0FBF1F0401CC0F30B00B7E7A086010037
:102E300080841E0000093D0040420F002DE9F84F3C
:102E40000025DDF82890984617468A4604460095E6
:102E5000FFF710FF064694F83D0020287AD1192389
:102E6000012286492046009601F006FC0028F5D193
:102E700094F83C0001286DD0012084F83C002068C3
:102E80000168C90703D1016841F0010101602068B0
:102E9000016821F400610160222084F83D001020C7
:102EA00084F83E0025646762A4F82A80608D20853E
:102EB0007348E06233464A465146204601F0ECFA38
:102EC00000287CD1208DDFF8BC81202768B1012843
:102ED00014D00228206801681ED041F4806101608E
:102EE0002068416980690090BBE020684169816980
:102EF0000091016841F400710160B2E0206801684E
:102F000021F48061016072B6206841698169009195
:102F1000016841F400710AE041F40061016072B699
:102F20002068416981690091016821F48061016034
:102F300062B696E0032865D801280CD002284B46DB
:102F40004FF000024146204600960BD001F094FB62
:102F5000A8BB0CE090E032464946204601F032FC26
:102F600068BB71E001F088FB48BB72B633E02068B3
:102F7000016821F48061016072B620680069616AAD
:102F80000870606A401C6062208D401E2085608D44
:102F9000401E60853C4846F2A8110068B0FBF1F085
:102FA000C0EBC00000EB80000090401E009007D0F6
:102FB00020684069C04340070DD50098F5E727E039
:102FC00044F8305F6773A573206940F020002061EA
:102FD00062B625731CE02068016841F4007101604D
:102FE00020680069616A0870606A401C6062218D17
:102FF000491E2185618D491E618562B62168096976
:10300000017025E032464946204601F0DBFB10B155
:103010000120BDE8F88F20680069616A0870606A65
:10302000401C6062208D401E81B22185608D401E53
:10303000608520684269D243520712D4032903D124
:10304000016821F48061016020680069616A08708C
:10305000606A401C6062208D401E2085608D401E8D
:103060006085208D00287FF465AF84F83D7084F87A
:103070003E5084F83C50CCE70220CAE70200100022
:103080000000FFFF04000100BC0000202DE9F84F04
:103090001F4690468A460446DDF82890FFF7EAFD71
:1030A000054694F83D0020287FD11923012240498C
:1030B0002046009501F0E0FA002876D194F83C0013
:1030C000012872D0012084F83C0020680168C907FB
:1030D00003D1016841F0010101602068016821F419
:1030E00000610160212084F83D00102084F83E003A
:1030F00000262664C4F824806785608D20852D48CD
:10310000E0622B464A465146204601F03BFA90B910
:10311000206841698069009036E02A464946204689
:1031200001F088FB50B1206C042804D120680168AC
:1031300041F4007101600120BDE8F88F606A2168E8
:1031400000780861606A401C6062618D491E61857B
:10315000218D491E89B2218522685369DB435B07B3
:103160000BD451B100781061606A401C6062608DC0
:10317000401E6085208D401E20852A4649462046F7
:1031800001F04EFA0028CED1208D0028C5D154F888
:103190003D0B016841F400710160202004F81E0914
:1031A000E67766770020C7E7FFE70220C4E7000064
:1031B000020010000000FFFF10B5006809498842B6
:1031C0000FD10948C16921F48001C161074C011583
:1031D0002046FFF7CDFBE1142046BDE81040FFF785
:1031E000C7BB10BD0058004000100240000C014059
:1031F00010B586B000210091019102910391006801
:10320000104988421BD1104CA06940F00800A06111
:10321000A069694600F0080004904FF440600090F7
:1032200012200190032003900848FFF72DFCE0696D
:1032300040F48000E061E06900F48000049006B092
:1032400010BD00000058004000100240000C01407A
:10325000024881680278114481607047B000002004
:10326000074810B5016841F010010160032000F02B
:1032700075F80F2000F006F800F024F8002010BDCB
:103280000020024070B50D4D04464FF47A71287845
:10329000B1FBF0F00A490968B1FBF0F000F052FB15
:1032A00048B9102C07D200222146501E00F036F8F3
:1032B00000206C6070BD012070BD0000B0000020D7
:1032C000BC0000200C4808B5816941F00101816112
:1032D000816901F001010091C16941F08051C16132
:1032E000C06900F0805000900448416821F0E0611E
:1032F00041F00071416008BD001002400000014033
:10330000002809DB00F01F020121914040098000E4
:1033100000F1E020C0F8001170470000F0B40E4B3F
:103320001B680C46C3F30223C3F10705042D00D923
:103330000425191D072901D2002300E0DB1E012608
:1033400006FA05F1491E214099409E40761E16401E
:103350003143F0BC01F0BEBE0CED00E0064900F0C8
:10336000070208684FF6FF03184040EA0220034AAC
:1033700010430860704700000CED00E00000FA0503
:103380002DE9F84305460078354CC00754D0E06974
:103390000026C00008D4E06940F08050E061E06998
:1033A000012600F0805000902E480168C90512D413
:1033B0000168804641F480710160FFF75BFC0746BD
:1033C00005E000BFFFF756FCC01B642823D8D8F8DF
:1033D0000000C005F6D5206A10F4407021D0A988FD
:1033E00001F4407181421CD0206A1F49012220F45F
:1033F00040700A6000220A602062C00711D0FFF707
:1034000039FC074641F2883808E000BFFFF732FC7C
:10341000C11B414502D90320BDE8F883206A80071B
:10342000F4D5206A696820F44070084320621EB118
:10343000E06920F08050E0612878800705D5606859
:10344000A96820F44040084360602878C00605D58C
:103450006068E96820F48000084360600020DBE7D2
:103460000010024000700040400442422DE9F04745
:103470000F46050061D0434E306800F00700B842A7
:1034800009D2306820F0070038433060306800F01F
:103490000700B84251D128683B4C810712D540073C
:1034A00003D5606840F4E06060602878000703D5C9
:1034B000606840F4605060606068A96820F0F000C7
:1034C000084360602878C00728D06868012810D0B9
:1034D0002168022810D0890700292EDA616821F0BE
:1034E000030101436160FFF7C5FB804641F2883963
:1034F0000DE021688903EFE78901EDE7FFF7BAFBEB
:10350000A0EB0801494502D90320BDE8F0876068B7
:10351000696800F00C00B0EB810FEFD1306800F06B
:103520000700B8420BD9306820F0070038433060FC
:10353000306800F00700B84201D00120E5E72878A4
:10354000400705D56068E96820F4E06008436060E2
:103550002878000706D56068296920F4605040EAA1
:10356000C100606000F038F86168084AC1F30311D7
:10357000515CC8400649086006480068FFF782FEB3
:103580000020C2E700200240001002405A700008EC
:10359000BC000020B40000200448054900684968C8
:1035A000044AC1F30221515CC8407047BC000020AE
:1035B000001002406A700008044805490068496824
:1035C000044AC1F3C221515CC8407047BC000020CE
:1035D000001002406A7000080E4A51680E4801F05F
:1035E0000C03042B11D0082B0FD10C48C1F38343DB
:1035F000C903C05C0AD55168084AC1F34041921E14
:10360000515C054A5043B0FBF1F070470449484310
:10361000704700000010024000127A004A70000853
:1036200000093D002DE9F84F040070D02078C04D0E
:10363000C00749D06868C0F38100012807D06868D6
:10364000C0F38100022809D16868C00306D5286844
:10365000800339D560680028E7D035E06068B0F5B0
:10366000803F0BD010B1B0F5A02F11D0286820F406
:1036700080302860286820F4802002E0286840F428
:1036800080302860606890B1FFF7F4FA06460AE0DF
:10369000286840F480202860F0E700BFFFF7EAFACE
:1036A000801B642873D828688003F7D50CE0FFF7E7
:1036B000E1FA064605E000BFFFF7DCFA801B64284C
:1036C000F0D828688003F7D420789A4E80074FF00E
:1036D00001094FF0000839D5686810F00C0F07D0C9
:1036E0006868C0F38100022809D16868C00306D465
:1036F0002868800714D52069012808D110E02069C6
:10370000B0B1C6F80090FFF7B5FA074605E00AE148
:10371000FFF7B0FAC01B0228C4D828688007F7D585
:103720002868616920F0F80040EAC10028600DE0D7
:10373000C6F80080FFF79EFA074604E0FFF79AFA02
:10374000C01B022823D828688007F7D420780007F8
:103750002CD57948A169D9B1C0F80090FFF78AFA51
:10376000074604E0FFF786FAC01B02280FD8686AF4
:103770008007F7D571484FF4FA510068B0FBF1F0BB
:10378000009000BF0098411E0091FAD20EE080E048
:10379000C0F80080FFF76EFA074604E0FFF76AFA08
:1037A000C01B022875D8686A8007F7D420784007C4
:1037B00060D5E8690027C00008D4E86940F080506F
:1037C000E861E869012700F0805000905C480168DA
:1037D000C90513D40168834641F480710160FFF785
:1037E00049FA824606E000BFFFF744FAA0EB0A0060
:1037F00064284ED8DBF80000C005F5D5E068012844
:103800000AD008B1052813D0286A20F001002862E8
:10381000286A20F0040002E0286A40F001002862D3
:10382000E06841F2883B98B1FFF724FA82460BE04A
:10383000286A40F004002862EEE700BFFFF71AFA9A
:10384000A0EB0A0159455AD8286A8007F6D50CE042
:10385000FFF710FA824605E0FFF70CFAA0EB0A0129
:1038600059454CD8286A8007F6D41FB1E86920F082
:103870008050E861E06988B36968C1F38101022979
:1038800044D00228C6F8608004D0FFF7F3F904465C
:1038900038E034E0FFF7EEF9074604E0FFF7EAF915
:1038A000C01B02282BD828688001F7D4206AB0F505
:1038B000803F05D16868A16820F400300843686043
:1038C000D4E908010843696821F474110843686069
:1038D000C6F86090FFF7CEF9044606E025E000BF89
:1038E000FFF7C8F9001B022809D828688001F7D51E
:1038F0001BE000BFFFF7BEF9001B022802D903201E
:10390000BDE8F88F28688001F4D40EE00128F7D0D4
:103910006868226A00F48031914204D1616A00F43F
:103920007010884201D00120EAE70020E8E700009B
:10393000001002400000424280044242BC000020CD
:103940000070004010B5401EB0F1807F01D301200F
:1039500010BD4FF0E02460610F21601701F0BAFB49
:103960000020A06107202061002010BD7047704733
:1039700070B590F83C20012A26D0012480F83C4004
:10398000022280F83D2003685A689D6822F0700684
:103990000A6832435A600D4B02689A4208D0B2F16D
:1039A000804F05D00A4B9A4202D00A4B9A4204D16A
:1039B000496825F080031943916080F83D4000215B
:1039C00080F83C10084670BD022070BD002C0140FC
:1039D000000400400008004010B5040003D094F833
:1039E0003D0010B107E0012010BD002084F83C002C
:1039F000204600F01FF8022084F83D00211D2068B9
:103A000001F0D8F8012084F8460084F83E0084F8DC
:103A10003F0084F8400084F8410084F8420084F8B4
:103A2000430084F8440084F8450084F83D000020F9
:103A300010BD000008B501681048B1F1804F14D0E6
:103A40000F4A914219D1C16941F00401C161C069B5
:103A5000002200F00400009011461E20FFF75EFCDB
:103A6000BDE808401E20FFF74BBCC16941F00101D1
:103A7000C161C06900F00100009008BD0010024063
:103A80000008004090F83D10012901D00120704746
:103A9000022180F83D100168CA6842F00102CA6044
:103AA00000680B49884208D0B0F1804F05D0094921
:103AB000884202D00849884204D1816801F0070198
:103AC000062903D0016841F0010101600020704720
:103AD000002C0140000400400008004070B504467E
:103AE00090F83C000025012817D0012684F83C609E
:103AF000022084F83D002068826822F0770222F4D8
:103B00007F4282600868502838D00DDC20284FD0D2
:103B100005DC90B3102811D14AE0022070BD302896
:103B200046D040280AD13BE060282FD070280DD025
:103B3000B0F5805F03D0B0F5005F12D0012584F8A6
:103B40003D60002084F83C00284670BDCB68D1E978
:103B50000121206801F077F82068816841F0770141
:103B600009E0CB68D1E90121206801F06CF82068F8
:103B7000816841F480418160E1E719E0CA684968E1
:103B8000206801F015F95021206806E0CA684968EC
:103B9000206801F01EF96021206801F05EF8CEE790
:103BA000CA684968206801F003F940212068F4E7F9
:103BB000226801461046F0E770472DE9F0410446BF
:103BC0000068C66805694FF00007A90713D5B1075B
:103BD00011D5F91E016101202077206880698007D6
:103BE000204602D0FFF7E8FF04E000F0A3F82046EB
:103BF00000F035F92777680716D5700714D52168C6
:103C00006FF004000861022020772068806910F4BA
:103C1000407F204602D0FFF7CFFF04E000F08AF893
:103C2000204600F01CF92777280715D5300713D553
:103C300021686FF008000861042020772068C069BF
:103C40008007204602D0FFF7B7FF04E000F072F8CB
:103C5000204600F004F92777E80616D5F00614D5BB
:103C600021686FF010000861082020772068C06983
:103C700010F4407F204602D0FFF79EFF04E000F0E2
:103C800059F8204600F0EBF82777E80708D0F0074E
:103C900006D021686FF001000861204600F02EF97F
:103CA000280608D5300606D521686FF08000086127
:103CB0002046FFF75BFE680608D5700606D521682A
:103CC0006FF040000861204600F022F9A8060AD5EE
:103CD000B00608D521686FF0200008612046BDE8D5
:103CE000F041FFF744BEBDE8F081000000B585B0AB
:103CF000002100910191029103910068B0F1804F81
:103D000011D10A48816941F00401816180696946E5
:103D100000F004000490072000900220019003901E
:103D20000348FEF7B1FE05B000BD000000100240E0
:103D300000080140704770B5044690F83C0000262A
:103D40000D4601280FD0012084F83C006AB1042AF6
:103D50001DD0082A2FD00C2A3FD00126002084F83D
:103D60003C00304670BD022070BD206800F07EFF30
:103D70002068816941F0080181612068816921F032
:103D800004018161206881692A69114311E020687A
:103D900000F094FF2068816941F40061816120682E
:103DA000816921F480618161206881692A6941EA21
:103DB00002218161D2E7206800F0ACFF2068C16970
:103DC00041F00801C1612068C16921F00401C161AD
:103DD0002068C1692A69114311E0206800F0C6FF1C
:103DE0002068C16941F40061C1612068C16921F4A2
:103DF0008061C1612068C1692A6941EA0221C1610B
:103E0000ACE710B5040003D094F83D0010B107E012
:103E1000012010BD002084F83C00204600F01EF870
:103E2000022084F83D00211D206800F0C3FE01201F
:103E300084F8460084F83E0084F83F0084F840008F
:103E400084F8410084F8420084F8430084F8440078
:103E500084F8450084F83D00002010BD704770478D
:103E600010B50446022249B104290ED0082913D006
:103E700094F84100012816D0012010BD94F83E00AE
:103E80000128F9D184F83E200FE094F83F00012882
:103E9000F2D184F83F2008E094F840000128EBD1EB
:103EA00084F8402001E084F841200122206800F0DD
:103EB000BDFE0F492068884203D1426C42F40042A3
:103EC00042642068884208D0B0F1804F05D009498B
:103ED000884202D00849884204D1816801F0070174
:103EE000062903D0016841F001010160002010BDE6
:103EF000002C014000040040000800400068034915
:103F0000884201D101F03EBA70470000000800402D
:103F10007047704770470000F8B5016804460868AC
:103F2000CA684B6910F00F0F4FF0000559D003F02D
:103F3000010602F49077374365D0C10705D0D1055B
:103F400003D5616C41F001016164410705D5D907D2
:103F500003D0616C41F002016164810705D5D90786
:103F600003D0616C41F004016164010707D502F0E0
:103F70002001314303D0616C41F008016164616C40
:103F800000293AD0800604D5900602D5204600F0DC
:103F900061FF20684069616CC0F38010090700D49C
:103FA00060B3204600F02FFF20684069400621D50D
:103FB0002068143050E8001F21F0400140E8001252
:103FC000002AF5D1E06BA8B16D494163E06BFEF7C3
:103FD00061FB002811D0E06B416B01B0BDE8F040FF
:103FE000084783060FD593060DD52046BDE8F84057
:103FF00000F030BF2046FFF78DFFF8BD2046FFF7E9
:1040000089FF6564F8BD266B2023012E7CD1C6068E
:104010007AD5D60678D508684868009048694FF088
:104020000206400640D5E16B086840680004000CB9
:10403000E8D0A28D8242E5D9E085886920282DD07C
:1040400020680C3050E8001F21F4807140E8001215
:10405000002AF5D12068143050E8001F21F001013A
:1040600040E80012002AF5D12068143050E8001F03
:1040700021F0400140E80012002AF5D184F84230D6
:10408000256320680C3050E8001F21F0100140E843
:104090000012002AF5D1E06BFEF7D8FA6663A08D16
:1040A000E18D401A81B22AE0A08DE18D401A81B2E3
:1040B000E08D0028A6D00029A4D022680C3252E856
:1040C000000F20F4907042E80007002FF5D120681F
:1040D000143050E8002F22F0010240E80027002FA2
:1040E000F5D184F84230256320680C3050E8002F69
:1040F00022F0100240E80023002BF5D16663204631
:10410000FFF707FFF8BDFFE705062BD5150629D5F4
:1041100094F841002128F5D1A068B0F5805F01D165
:104120002069B0B1206A411C216221680078486092
:10413000E08C401E0004000CE084E3D12068C168DC
:1041400021F08001C1602068C16841F04001C16078
:10415000D8E7206A0088C0F308004860206A801C05
:104160002062E5E74006CDD55006CBD5CA6820468B
:1041700022F04002CA6084F8413000F037F9C1E70C
:10418000F74D000870B5040004D094F841000025F4
:1041900010B106E0012070BD84F84050204600F0C8
:1041A00023F8242084F841002068C16821F40051DC
:1041B000C160204600F0B0FE2068016921F4904102
:1041C00001612068416921F02A0141612068C168CC
:1041D00041F40051C1606564202084F8410084F8F6
:1041E00042006563002070BD30B585B000240094A6
:1041F0000194029403940068184988422CD118480D
:10420000816941F480418161816901F480410491B7
:10421000816941F0040181618069124D00F0040060
:1042200004904FF40070009002200190032003904E
:1042300069462846FEF728FC2815CDE900046946A2
:1042400028460294FEF720FC002211462520FFF7A5
:1042500065F82520FFF754F805B030BD003801405F
:10426000001002400008014090F84230202B01D09D
:104270000220704721B11AB10023036300F0A8BEE9
:104280000120704730B50068184993B088422BD19F
:10429000174C184A2046E17900890A2901D03F28A5
:1042A00014D300251554134801F072FDE06802F0A4
:1042B000EFF9CDE9000123780FA2402102A8FBF716
:1042C000AFFF02A801F0F0FF258104E00D2902D024
:1042D0001154401C208113B00549BDE83040012233
:1042E000C91D0C48FFF7C0BF13B030BD00380140F6
:1042F00000000020C000002041434B3A206D6F6455
:10430000653D25642C205467743D252E32660D0AC8
:1043100000000000580500202DE9F843044690F8FD
:104320004100984616460D46202802D00220BDE8DE
:10433000F88385B17EB100206064212084F84100BB
:10434000FEF798FCA6848146E684A0682027B0F595
:10435000805F02D003E00120E9E7206910B12E461A
:1043600000250EE000260CE08021204600F04BFEE8
:10437000A8B9C6B116F8010B21684860E08C401E50
:10438000E084E08C4B464FF00002CDF8008000281E
:10439000EAD14FF04001204600F035FE40B184F8EC
:1043A00041700320C3E735F8020BC0F30800E3E7D0
:1043B00084F841700020BAE790F84130202B01D0FA
:1043C0000220704779B172B101628284C2840021F7
:1043D0004164212180F841100068C16841F08001EA
:1043E000C1600020704701207047000070B5006870
:1043F000114988421ED1114CA078401C00F00700E2
:10440000A070A0786178884212D0A0780C4D00EBA3
:10441000400005EB4010FBF7E0FF82B2A07800EB14
:10442000400005EB4011BDE870400648FFF7C4BFEF
:104430000020E07070BD0000003801400000002046
:104440000001002058050020FEE7000010B50548D7
:10445000FEF716FC0220FEF779FABDE8104001488D
:10446000FEF728BC7404002001684A69D243520553
:104470000FD46FF480624A61002140F8301F20227F
:1044800042738173026942F00402026101730120E8
:1044900070470020704700002DE9F84F0446C06ABD
:1044A0001E4693460D4621680A6842F480620A60FF
:1044B000082807D0012805D010F5803F02D0206BD6
:1044C000112804D12068016841F4807101604FF027
:1044D00001195B46002249462046009600F0CCF8C0
:1044E0004FF4007840B120680068C00501D5C4F8D9
:1044F00040800320BDE8F88F2069DFF884A0B0F584
:10450000804F0FD00620216800EAD51747F0F00051
:10451000086133465A460AF10601204600F0F4F8D5
:1045200058BB03E0E8B240F001001CE02168E8B2AB
:10453000086133465A465146204600F0E5F8E0B996
:104540002068416981690091016841F480710160CE
:104550005B46002249462046009600F08DF8002870
:10456000C1D147F0F1002168086133465A465146EF
:10457000204600F0C9F80028BCD00120BAE70000AE
:1045800002000100F8B50446C06A1E460D461746F3
:10459000082807D0012805D010F5803F02D0206BF5
:1045A000122804D12068016841F48071016013462B
:1045B00000224FF001112046009600F05DF840B156
:1045C00020680068C00502D54FF400702064032005
:1045D000F8BD2069B0F5804F0ED00620216800EAB2
:1045E000D51040F0F000086133463A460B492046AA
:1045F00000F08AF878B902E005F0FE0000E0E8B2C9
:1046000021680861054933463A46891F204600F073
:104610007BF80028DCD00120F8BD00000800010074
:1046200070B516460D4604461EE02046FFF71CFFF7
:1046300008B1012070BD681C16D0FEF71BFB801B63
:10464000A84200D885B920684069C04340070BD50F
:10465000002044F8300F20216173A073216941F0DC
:10466000200121612073E4E720684069C0434007CE
:10467000DBD4002070BD00002DE9F04798461746B6
:104680000D460446C1F30746DDF820902AE000BF3E
:10469000B8F1FF3F26D0FEF7EDFAA0EB0901414546
:1046A00002D8B8F1000F1DD12068012E16D0806904
:1046B00025EA00000004000C12D00020B84211D1FD
:1046C000002044F8300F20216173A073216941F06C
:1046D0002001216120730120BDE8F0874069E7E7F0
:1046E0000120EBE72068012E0AD0806925EA00004E
:1046F0000004000C06D00020B842C9D00020EBE72F
:104700004069F3E70120F7E72DE9F04798461646A0
:104710000D4604464FF000094FF0200AC1F3074749
:1047200023E020684069C043400515D42068016833
:1047300041F40071016021686FF480604861C4F841
:10474000309084F83DA084F83E90216C41F0040143
:10475000216484F83C9021E0701C06D0FEF78AFAB0
:10476000A0EB0800B04203D816B1012F1FD021E002
:104770002068012F15D0806925EA00000004000C94
:1047800018D000BF44F8309F84F80DA084F80E9034
:10479000216941F02001216184F80C900120BDE8DD
:1047A000F087406925EA00000004000CEAD1206887
:1047B000406901E02068806925EA00000004000CDF
:1047C000AFD1ECE72DE9F041002590460E460446B6
:1047D000202728E04069C043C0060CD454F8301BA1
:1047E0006FF01000486144F810596777A577206A88
:1047F0002062257714E0FEF73DFAA0EB0800B042F6
:1048000000D886B920684069C04340060BD544F8FB
:10481000305F6773A573206940F020002061257325
:104820000120BDE8F08120684169C9434906D1D41F
:104830000020F6E770B516460D4604461EE02046F9
:10484000FFF712FE08B1012070BD681C16D0FEF7FC
:1048500011FA801BA84200D885B920684069C0437E
:1048600000060BD5002044F8300F20216173A0739F
:10487000216941F0200121612073E4E7206840694B
:10488000C0430006DBD4002070BD00003EB500210F
:10489000174800910191154A0291026092158260B9
:1048A00001240473017502254FF460220561C26181
:1048B0004160FDF771FD08B1FDF7DCFC0820CDE992
:1048C00000040520029069460948FDF7D5FC08B1AF
:1048D000FDF7D0FC0920CDE9000569460448FDF745
:1048E000CBFC002801D0FDF7C5FC3EBD00240140F3
:1048F00000040020094808B5416941F00101416107
:104900004069002200F00100009011460B20FEF7E4
:1049100005FDBDE808400B20FEF7F2BC0010024088
:1049200070B586B000241848009401940294039452
:10493000816941F020018161816901F020010491C8
:10494000816941F004018161816901F004010491F0
:10495000816941F00801816180690C4E00F0080016
:104960004FF480750490002229463046FEF77CF90A
:1049700001200095CDE901040220039069463046EC
:10498000FEF782F806B070BD00100240000801403A
:104990000D4810B50B4901600C49416000214FF4EE
:1049A00080428160C0E9031241618161C16101629D
:1049B000FEF780F9002803D0BDE81040FDF75ABC8F
:1049C00010BD00000058004074040020801A06004A
:1049D00010B58EB000240794089409940A940B949F
:1049E0001C2168460C94FBF717FD25484FF08041C9
:1049F000C0E9001440F60F61C0E90241046184611E
:104A0000FEF7EAFF08B1FDF735FC4FF48050079040
:104A100007A91B48FFF762F808B1FDF72BFC1848FF
:104A2000FFF7EFF908B1FDF725FC0B940BA914482B
:104A30000C94FEF79DFF08B1FDF71CFC6020CDE94A
:104A400000040294002269460D480494FFF773F9AC
:104A500008B1FDF70FFC042269460948FFF76BF91E
:104A600008B1FDF707FC082269460548FFF763F91E
:104A700008B1FDF7FFFB0248FFF738F90EB010BD93
:104A8000C804002010B586B0002416480094019494
:104A90000294039404941249059401604721C0E9EB
:104AA00001146321C0E903148461FEF795FF08B186
:104AB000FDF7E0FB4FF48050009069460948FFF78E
:104AC0000DF808B1FDF7D6FB049404A90548059438
:104AD000FEF74EFF002801D0FDF7CCFB06B010BD5D
:104AE00000080040100500200C4810B50A4901607C
:104AF0004FF4E1314160002181600C22C160C0E9C6
:104B000004128161C161FFF73DFB002803D0BDE8BD
:104B10001040FDF7AFBB10BD003801405805002024
:104B2000FEE7FEE770477047FEF792BB30B593B0E3
:104B300028216846FBF770FC14210AA8FBF76CFCDF
:104B4000002501200F9510951195010412958DE80F
:104B5000230004904FF4E010CDE9081002240794DC
:104B60006846FEF75FFD08B172B6FEE70AA90F209E
:104B700081E831004FF48060CDE90D0502210AA8DB
:104B8000FEF774FC08B172B6FEE74FF400401190D6
:104B90000F940FA8FEF7F4FB002801D072B6FEE7D1
:104BA00013B030BD704700000148FFF706B80000A1
:104BB00010050020F0B50268194B1A4C1A4D4FF041
:104BC0008047984205D0B84203D0A04201D0A84205
:104BD00003D122F070064A683243984205D0B842A9
:104BE00003D0A04201D0A84203D122F44074CA6885
:104BF00022434C6922F08002224302608A68C2622A
:104C00000A688262984201D1096901630121416108
:104C10000169C90703D0016921F001010161F0BDFB
:104C2000002C0140000400400008004010B501F0D5
:104C30001F030121046A99408C430462016A9A406F
:104C40001143016210BD10B5846842EA032224F4C6
:104C50007F440A432243826010BD826822F07002C2
:104C60000A4342F0070181607047000030B5036AD3
:104C7000026A22F0010202624268846924F073052C
:104C80000C682C4323F002058B682B430A4DA84285
:104C90000BD123F00805CB6822F440722B434D69F9
:104CA00023F0040315438A692A43426084614968FA
:104CB0004163036230BD0000002C014030B5026A40
:104CC000036A23F010030362436884690D6824F4C7
:104CD000E64444EA05248D6822F0200242EA0512E7
:104CE0000B4DA8420ED1CD6822F0800242EA051297
:104CF0004D6923F4406343EA85038D6922F0400245
:104D000043EA85034360846149688163026230BD80
:104D1000002C014030B5036A026A22F480720262FC
:104D20004268C46923F4007324F073050C682C43B3
:104D30008D6843EA05230C4DA8420ED1CD6823F4BB
:104D4000006343EA05234D6922F4405242EA05120A
:104D50008D6923F4806342EA05124260C4614968A8
:104D6000C163036230BD0000002C014030B5046A0D
:104D7000026A22F4805202624268C3690D6823F419
:104D8000E64343EA05238D6824F4005444EA0534DD
:104D9000064DA84204D14D6922F4804242EA8512B0
:104DA0004260C36149680164046230BD002C014067
:104DB00010B5036A046A24F001040462846924F0D3
:104DC000F00444EA021423F00A020A4384610262F6
:104DD00010BD10B5036A046A24F0100404628469EB
:104DE00023F0A00324F4704444EA023243EA0111A0
:104DF0008261016210BD10B5406A0021C185C18485
:104E0000FFF788F810BD01680C3151E8002F22F43B
:104E1000907241E80023002BF5D10168143151E86C
:104E2000002F22F0010241E80023002BF5D1016B95
:104E3000012909D101680C3151E8002F22F010023C
:104E400041E80023002BF5D1202180F842100021F9
:104E50000163704708B590F84210222901D0022062
:104E600008BD82684FF480539A4201D1016921B193
:104E7000816A9A421BD04AB10AE00268816A52688C
:104E8000C2F308020A80816A891C08E0026972B1D3
:104E90000268526802F07F020A70816A491C8162CE
:104EA000C18D491E0904090CC18503D01BE00268AD
:104EB0005268F1E70168CA6822F02002CA600168FE
:104EC000CA6822F48072CA6001684A6922F001024D
:104ED0004A61202180F8421000214163026B012ABF
:104EE00003D0FFF7CFF9002008BD016301680C3142
:104EF00051E8002F22F0100241E80023002BF5D1E9
:104F000001680A68D20602D50A6849680091818D55
:104F1000FEF7FFFFE7E7000070B50446006801698F
:104F2000E26821F44051114301612169A0680843FE
:104F3000616908432168CA6841F20C639A430243DD
:104F4000CA6020684169A26921F44071114341613E
:104F50001E492068884202D1FEF72EFB01E0FEF7D1
:104F60001BFB00EBC00101EB0012606864218000B4
:104F7000B2FBF0F3B3FBF1F36FF018067343B2FB2F
:104F8000F0F5B2FBF0F605EB8305322303EB0515D4
:104F9000B5FBF1F5B6FBF1F605F0F00505EB0615EE
:104FA000B2FBF0F6B2FBF0F0B0FBF1F06FF01802DC
:104FB000504306EB800003EB0010B0FBF1F02168DA
:104FC00000F00F002844886070BD000000380140E8
:104FD00081628285C28500214164222180F84210CD
:104FE000016921B10168CA6842F48072CA6001682F
:104FF0004A6942F001024A610068C16841F020013B
:10500000C160002070472DE9F843984617460D46C9
:105010000446089E24E0701C22D0FDF72BFEA0EB76
:105020000800B0421AD8CEB12068C168490717D528
:10503000802D15D0402D13D00168C94309070FD426
:1050400001680025406800902046FFF7DCFE08203C
:10505000606484F840500120BDE8F8830320FBE73A
:105060002068006835EA000004D00020B842D2D0A1
:105070000020F1E70120F9E70148FEF74DBF0000ED
:1050800058050020FEE7490050EAC12018BF04205F
:105090004A0D18BF40F0010040F2FF72B2EB515FC1
:1050A00008BF40F00200012808BF052070474100FA
:1050B000080218BF04200A0E18BF40F001004FF08C
:1050C0007F4232EA010108BF40F00200012808BF18
:1050D000052070470907090E002804DB00F1E020D5
:1050E00080F80014704700F00F0000F1E02080F815
:1050F000141D704740F2013200204FF0E04101F0F2
:1051000031BF0000024A0020110701F02BBF000050
:1051100001FDFFFF012101F053BF0021084601F00E
:1051200057BB6FF05E01080701F04ABF10B5044697
:10513000D1E9000100F0B6F8206010BD2DE9F04D76
:105140000D4614464FF07F41B1EB440F9EBF4FF028
:10515000FF312960BDE8F08D4FF0004040EA0421A6
:10516000C4F3C750783810F01F024A4B4FEA601C56
:10517000C2F120067B44C4F3C750A0F178004FEA87
:10518000601003EB800053F82C3008BFD0E901C653
:1051900012D0D0F804C093402CFA06F73B4387683E
:1051A0000CFA02FC27FA06F8C06807FA02F2F0408F
:1051B0004CEA080C42EA0006A3FB0132ACFB01C03A
:1051C000A6FB016101EB0C068E4234BF4FF0010CCF
:1051D0004FF0000CC1186144BCF1000F02D08142B5
:1051E00002D903E0814201D2012000E000201044F6
:1051F00000F120024FEA92188006CA0C40EA4230C1
:105200004F03C5F8008001F0E1FB8246384601F00B
:10521000F5FB6FF0120101F0D3FE0746304601F0B6
:10522000EDFB6FF0250101F0CBFE83463946504679
:1052300001F05AFA594601F057FA00F500666FF38B
:105240000B065146304601F0E1FD394601F0DEFD26
:10525000594601F049FD104901F018FC07460F4975
:10526000304601F013FC394601F03EFA07460C497E
:10527000304601F00BFC394601F036FA14F0004FCD
:1052800008BFBDE8F08DC8F1805180F00040296072
:10529000BDE8F08DFC1E0000DB0FC92F22AAFD29FE
:1052A0000000C92FF8B504460D466A4600F082FB9F
:1052B00000987E30009000281EDC00221346204615
:1052C000294601F0E3F817D0002140F608004FF01E
:1052D000000006462046294601F092F8044640F6B2
:1052E000080006EA00014FF0000034F0004004BF5F
:1052F0000220FBF7F0F829E00098FF2828DB0021C6
:1053000008464FF0000000F44006002213462046F5
:10531000294601F087F98CBF002501250220FBF703
:10532000DAF84FF0FF4446B1002D0CBF4FF40000F7
:105330004FF48000B04218BF084C042108464FF0DB
:105340000000002D04BF84F00040F8BD2046F8BDE9
:1053500020462946BDE8F84001F052B8FFFF7F7FA4
:1053600010B504460A46D4E90003194600F078FB5C
:10537000C4E9000110BD30380A2801D2012070476D
:10538000002070472DE9FE4FFE4C2078DFF8F8A38F
:105390004FF08145012827D0DFF8F083022840D064
:1053A000032831D004284BD104F180062746316A06
:1053B000E06801F02BFDF16981468B4601F094F91C
:1053C00004464FF0FF31306901F0FAFD514601F01B
:1053D0005DFB214601F05AFBB16901F085F9B0612E
:1053E000A8427DDDB561B9E1E949E06801F04EFB15
:1053F000514601F04BFBE16901F076F900F0B4FC95
:105400000146E0612846E1E1216CE06801F0FEFC24
:105410000095A26903466169206900F08DFD216B4A
:10542000D4E16079DB4E4FF00009376850B1F86A7B
:10543000C7F834903168C1F838903168C1F83C90B1
:10544000BDE8FE8FDFF83CB30BF1240BBBF8000086
:1054500001F0D4FAD04901F019FB616B01F0D6FCE0
:105460000090BBF8020001F0C9FACB4901F00EFB35
:10547000A16B01F0CBFC83464FF04041009801F056
:1054800005FBA0624FF04041584601F0FFFAE06290
:10549000A06A20F000414FF08040814204DCE16AC4
:1054A00021F00041814202DD01206071BFE7A76A5F
:1054B000E06ADFF8D0B20BF1800BDBF8001011B11D
:1054C0003946074608460121009701F079FD394623
:1054D00001F00AF9B14901F0D9FA0746206B00E062
:1054E00038E1A8498031896801F0FEF8834600F070
:1054F000F7FD0290584600F06FF901903946029886
:1055000001F0C4FA8346DDE9001001F0BFFA594604
:1055100001F0EAF8E06483460099029801F0B6FAD7
:1055200000903946019801F0B1FA009901F06EFC43
:10553000014620658BF0004BA06C01F067FC0090E9
:105540005946206E01F0A2FA514601F09FFA616DB2
:1055500001F0CAF8606507460099A06E01F096FA5E
:10556000514601F093FAA16D01F0BEF88246A065A4
:105570005946E06D01F08AFA394601F0B5F88346E4
:105580000099606E01F082FA514601F0ADF80146D3
:10559000009001F07BFA07465946084601F076FA7A
:1055A000394601F0A1F800F05FFE009F0246DA469E
:1055B00084F804907A48824214DB7A49104601F05C
:1055C00093F80146284601F003F98146014650460A
:1055D00001F05CFA82464946384601F057FA074620
:1055E000012020715946504601F010FCA146616D22
:1055F00001F07AF8606583463846009901F006FCB0
:10560000A16D01F071F8A0652946584601F00AFB2A
:1056100001D2C9F8545044464046C846D9F85410FF
:1056200001F000FB01D2C8F854402946D8F85800D0
:1056300001F0F8FA01D2C8F85850254620464446F1
:10564000D8F8581001F0EEFA00D2A5654D48803028
:10565000406808B187F000473946029801F016FA11
:1056600005465146019801F011FA294601F0CEFB9A
:1056700005463946019801F009FA804651460298DC
:1056800001F004FA414601F02FF8DFF81CB1804622
:105690005946284601F028F801904449404601F057
:1056A000F5F92946009001F0B1FB4FF0FF3949466A
:1056B00001F086FC594601F017F88046294600980B
:1056C00001F012F8494601F07BFC594601F00CFB51
:1056D00005463068C06A01F091F9DFF8D49083463E
:1056E0004946019801F074F800F07CFC594601F03D
:1056F000CDF901F04BF9316848634946404601F065
:1057000067F800F06FFC594601F0C0F901F03EF96E
:1057100031688863D8464946284601F059F800F0B8
:1057200061FC414601F0B2F901F030F93168C8631B
:10573000C4E91DA73946384601F0A8F90546514687
:10574000084601F0A3F9294600F0CEFF00F08CFDD9
:10575000E06775E6404501D9C6F8188059464846C5
:1057600001F054FB716901F091F9514601F030F8F4
:1057700004464946F06801F089F9B16900F0B4FFC8
:10578000214617E00000002017B7D138000080C084
:105790000000E040C80400206740533A3ACD133F70
:1057A0009EEF7F40BD3786350000C040D7B3DD3F58
:1057B0000000404100F098FFA84201DD284602E0C9
:1057C000404500D94046C6F81C90396B03B0BDE88F
:1057D000F04F00F013BC00002DE9F84304460246E8
:1057E0004F486946B0EB420F09D94FF0E640B0EBA5
:1057F000420F94BF00204FF0FF30009030E0494B43
:1058000022F00040834271D94749204601F03EF919
:1058100001F03AFA804601F09DF800F00300009094
:105820004249404601F032F905464149404601F0FF
:105830002DF906463F49404601F028F907463E4902
:10584000404601F023F9214601F04EFA394601F0B5
:10585000DDFA314601F0DAFA294601F0D7FA0446BA
:105860002546009C002C45DB294614F0010F084614
:105870001CD001F00BF90646304901F007F9304918
:1058800001F032FA314601F001F92E4900F02CFF07
:10589000314601F0FBF8294601F0F8F8294600F0FE
:1058A00023FF14F0020F1CD0BDE8F88301F0EEF8DE
:1058B0000546254901F0EAF8244900F015FF29467C
:1058C00001F0E4F8224900F00FFF294601F0DEF86C
:1058D0004FF07E5100F008FF14F0020F08BFBDE842
:1058E000F88380F00040BDE8F883FFE71046FFF73B
:1058F00025FCB4E76800B0F17F4F3CBF4FF07E500D
:10590000BDE8F88307D14FF00100FAF7E4FDBDE8E8
:10591000F843FFF702BC2846BDE8F843FFF7FABB9F
:10592000B61F927E490E494683F9223F1A61342CF4
:105930000020A23300A0FD390000C93F336D4C396F
:10594000DA82083CA0AA2ABEB93AB2BACA9F2A3D56
:10595000DDFFFFBE2DE9F0410026074635463446FF
:10596000DFF848800BE000BFB8F80010B8F802007C
:105970000E4405440120FCF7E9FF641CA4B2BC42BC
:10598000F2D3B6FBF7F001F039F8094E314601F0D9
:105990007DF8064C243C6063B5FBF7F001F02EF86F
:1059A000314601F073F8A063BDE8F08124000020C7
:1059B0006740533A10B5144600222260114A21F084
:1059C00000439342A8BF10BD53EA000208BF10BDB8
:1059D000B3F5801FA8BF226807DA362201F0C2FAA9
:1059E0006FF0350221F000432260DFF81CC06FF336
:1059F0001E510CEB23531A4441F0FF5141F000516A
:105A0000226010BD0000F07F02FCFFFF2DE9F04195
:105A1000104D114FDFF84480002600BFFCF7AEFBAD
:105A20000446B84208D2BD4206D2294601F0EEF93A
:105A300020F00041414508DB25460520FCF786FFA4
:105A4000761C142EEADBBC4202D22046BDE8F0816F
:105A50000020FBE7000080BF000080800AD7233CC5
:105A60002DE9F04106460C4640F2FF75174635EA2F
:105A700014502BD000221346304600F007FD25D0ED
:105A80003A463046214601F06DFA06460C4635EAA4
:105A9000145010D000221346304600F0F7FC15D108
:105AA0000220FAF718FDFFF72DFB0A46214662F3A4
:105AB0001E01BDE8F0810220FAF70DFDFFF71AFB89
:105AC0000A46214662F31E01BDE8F08130462146B8
:105AD000BDE8F081A4B0FDF7C3FBFFF727F8FEF7A0
